:03000000020716DE
:0C071600787FE4F6D8FD75818402075D51
:0E11B700EF4E7005EFE4FEFF227EFF7FFF2269
:10108200EF14600D14600D14600D2403700D8D803B
:0C109200228D90228DA022AF058FB0228D
:100FEB00E4FEEF14600E14600F1460102403700EF7
:100FFB00AE80800AAE908006AEA08002AEB0AF0687
:01100B0022C2
:020BD000AC0770
:100BD200EB6014AF04120FEBA8057401088002C386
:100BE20033D8FC4FFF8015AF04120FEBAE05A806F9
:100BF2007401088002C333D8FCF45FFFEC14600D6B
:100C020014600D14600D2403700B8F80228F9022CC
:050C12008FA0228FB04D
:010C170022BA
:100DBD00E4FCEF14600E14600F1460102403700E29
:100DCD00AC80800AAC908006ACA08002ACB0AF05C0
:100DDD007E007401A807088005C333CE33CED8F941
:0C0DED00FFAD04EF5D60037F01227F007A
:010DF90022D7
:10117800EF70047F0180027F00EF24FFB392D52235
:10118800EF70047F0180027F00EF24FFB392D42226
:10119800EF70047F0180027F00EF24FFB392D32217
:10112B00AE07EE5401FF121198AF06EFC313540133
:04113B00FF02118816
:04001E00E433FF22A6
:06129900A2D5E433FF22A0
:06129F00A2D4E433FF229B
:0612A500A2D3E433FF2296
:0612AB00A2D2E433FF2291
:0E11C500EF4E7005EFE4FEFF227EFF7FFF225B
:10102B00900067E0FBA3E0FAA3E0F9900000EBF07F
:0D103B00A3EAF0A3E9F0120455E4FEFF2241
:1010480090006AE0FBA3E0FAA3E0F9900006EBF059
:0D105800A3EAF0A3E9F0120455E4FEFF2224
:100E6C00900000E0F9A3E0FAA3E0900067C9F0A3BA
:100E7C00EAF0A3E9F090000074FFF0A37410F0A363
:100E8C00742BF0EF24FF92881209811212C97D0194
:050E9C00E4FF02113F1C
:100EA100900006E0F9A3E0FAA3E090006AC9F0A37C
:100EB100EAF0A3E9F090000674FFF0A37410F0A328
:100EC1007448F0EF24FF928A1209811212C97D0140
:050ED1007F0202113F49
:05000600E4FF0211A857
:05000E007F020211A8B1
:100A95004F00000000000000000000000000000002
:020AA50000004F
:0E11D300EF4E7005EFE4FEFF227EFF7FFF224D
:1009810090000FE4F0A3F0A374A8F0A3E4F0A3F0A7
:10099100A374A9F0A3E4F0A3F0A374AAF0A3E4F074
:1009A100A3F0A374ABF0A3E4F0A3F0A374ACF0A3A1
:1009B100E4F0A3F0A374B8F0A3E4F0A3F0A374B936
:1009C100F0A3E4F0A3F0A374BAF0A3E4F0A3F0A3BE
:0D09D10074BBF0A3E4F0A3F0A374BCF0220B
:0312C900D2AF227F
:0312CC00C2AF228C
:10113F00900064EDF0A8077401088002C333D8FC57
:03114F0042A82291
:0F11A800A8077401088002C333D8FCF452A822B0
:09126E00900081EFF0A3EDF022E5
:03000300020C18D4
:100C1800C0E0C0F0C083C082C0D075D000C000C0A2
:100C280001C002C003C004C005C006C00790000090
:100C3800A3E0FAA3E0F94A6003120455D007D006EE
:100C4800D005D004D003D002D001D000D0D0D082BB
:070C5800D083D0F0D0E032A0
:03000B00020C5F85
:100C5F00C0E0C0F0C083C082C0D075D000C000C05B
:100C6F0001C002C003C004C005C006C00790000346
:100C7F00A3E0FAA3E0F94A6003120455D007D006A7
:100C8F00D005D004D003D002D001D000D0D0D08274
:070C9F00D083D0F0D0E03259
:03001300020CA636
:100CA600C0E0C0F0C083C082C0D075D000C000C014
:100CB60001C002C003C004C005C006C007900006FC
:100CC600A3E0FAA3E0F94A6003120455D007D00660
:100CD600D005D004D003D002D001D000D0D0D0822D
:070CE600D083D0F0D0E03212
:03001B00020CEDE7
:100CED00C0E0C0F0C083C082C0D075D000C000C0CD
:100CFD0001C002C003C004C005C006C007900009B2
:100D0D00A3E0FAA3E0F94A6003120455D007D00618
:100D1D00D005D004D003D002D001D000D0D0D082E5
:070D2D00D083D0F0D0E032CA
:03002300020D3497
:100D3400C0E0C083C082C0D075D000C0003098111C
:100D44001212CC7884E6062464F8A6991212C9C259
:100D540098309916C2991212CC90006EE004F0708B
:100D64000690006DE004F01212C9D000D0D0D082F9
:050D7400D083D0E03245
:050016006F6B0D0A00F4
:0A0AA700420079000042007B0000CD
:0E11E100EF4E7005EFE4FEFF227EFF7FFF223F
:08128900E4FBFD7F02020BD023
:10109E00900079E0FEA3E0F4FFEEF4900079F0A367
:0A10AE00EFF0FB7D017F02020BD082
:09127700E4FB7D027F02020BD0B2
:09128000E4FB7D037F02020BD0A8
:1010B80090007BE0FEA3E0F4FFEEF490007BF0A349
:0A10C800EFF0FB7D047F02020BD065
:10090F0090000074FFF0A37412F0A37489F0A37425
:10091F00FFF0A37410F0A3749EF0A374FFF0A37400
:10092F0012F0A37477F0A374FFF0A37412F0A37402
:10093F0080F0A374FFF0A37410F0A374B8F0E4FF79
:10094F0012112B1209811212C9120F6F1212B97DD7
:10095F000C7F401206817F01120E6CE4FF120EA174
:10096F007F167D047C00120B377BFF7A0979DE023C
:02097F000898D6
:0812910012090F120DFA80FB97
:0E11EF00EF4E7005EFE4FEFF227EFF7FFF2231
:0412B100438701224C
:0412B5004387022247
:0D0AB100410055014100560342005D000068
:0E11FD00EF4E7005EFE4FEFF227EFF7FFF2223
:1010D200900055E0FF121165900055E0FF1211A833
:0710E2009000557401F0229B
:1010E900900056E0FF121165900056E0FF1211A81A
:0710F9009000567403F02281
:100A3B00900056E0FBF5823395E0F583E582640187
:100A4B004583701C5389F0438904EF4289EF64029C
:100A5B007007AF058F8C8F8A22EDF58AECF58C220F
:100A6B00EB3395E0FAEB64034A701E53890F43890D
:100A7B0040EFC454F04289EF64027007AF058F8DCD
:0A0A8B008F8B22EDF58BECF58D2228
:1004F900E490007DF0A3F090005DE07002A3E0704D
:100509004A1210D2900057E0FBA3E0FAA3E0F99059
:100519000055E0FFFD3395E0FC90000075F003ED18
:10052900120449EC75F003A42583F583EBF0A3EAE3
:10053900F0A3E9F0EF75F003A42400F582E4340098
:10054900F583A3E0FAA3E0F9020455D390005EE035
:10055900943C90005DE09400401F7F607EEA121297
:100569003A90007FEEF0A3EFF090005EE024C4F033
:1005790090005DE034FFF0802390007FE0FEA3E06F
:10058900FF7C037DE812038B12123A90007FEEF094
:10059900A3EFF0E4FE90005DF0A3CEF0900055E0EB
:1005A900FF90007FE0FAA3E0FB7D01120D7E900031
:0905B90055E0FF121152E4FEFFAF
:0105C2002216
:10115200EFFD7C0064017002D28CED64034C7002DE
:03116200D28E2208
:10116500EFFD7C0064017002C28CED64034C7002DB
:03117500C28E2205
:05123500E0FEA3E0FF54
:08123A00C3E49FFFE49EFE22C5
:050D7900900055E0FFB1
:100D7E00EF640170195389F0ED4289ED640270073A
:100D8E00AF038F8C8F8A22EBF58AEAF58C22EF6403
:100D9E0003701B5389F0EDC454F04289ED64027068
:0F0DAE0007AF038F8D8F8B22EBF58BEAF58D222C
:08082000900083EEF0A3EFF05D
:10082800900055E0FF3395E0FE90000075F003EF6F
:10083800120449EE75F003A42583F583E0F9A3E0DB
:10084800FAA3E0900057C9F0A3EAF0A3E9F09000FA
:100858000075F003EF120449EE75F003A42583F543
:100868008374FFF0A37404F0A374F9F012098112E1
:1008780012C9900083121235AD07AC06AB05AA0465
:0F0888007D01120D79E0FF12113F1211527F0016
:01089700223E
:100B8500E4FD90005DEEF0A3EFF0D3943CEE94000D
:100B950040197F607EEA120820AD0790005EE024D0
:100BA500C4F090005DE034FFF0801D90005DE0FE34
:100BB500A3E0FF7C037DE812038B120820AD07E458
:0A0BC500FE90005DF0A3CEF0AF0536
:010BCF002203
:0A1264007C037DE812038B020B856A
:100AE9001210E990005AE0FBA3E0FAA3E0F99000A4
:100AF90056E0FFFD3395E0FC90000075F003ED1220
:100B09000449EC75F003A42583F583EBF0A3EAF01F
:100B1900A3E9F0EF75F003A42400F582E43400F5AD
:0E0B290083A3E0FAA3E0F9120455E4FEFF22D4
:0807A200900085EEF0A3EFF0DA
:1007AA001209811212C9900085121235900056E082
:1007BA00FD3395E0FC90000075F003ED120449EC5E
:1007CA0075F003A42583F583E0F9A3E0FAA3E0908A
:1007DA00005AC9F0A3EAF0A3E9F090000075F0030B
:1007EA00ED120449EC75F003A42583F58374FFF038
:1007FA00A3740AF0A374E9F0AD07AC067F01120AEC
:10080A003B900056E0FF7D0112113F900056E0FF39
:05081A001211527F00E5
:01081F0022B6
:0100220022BB
:0212CF000022FB
:10100C007FC7EFD394007480948040127E01EED39E
:0E101C0094007480948040031E80F31F80E4D3
:01102A0022A3
:100F40007FA7EFD394007480948040217EABEED3D2
:100F500094007480948040127D10EDD394007480CE
:0E0F6000948040031D80F31E80E41F80D500A6
:010F6E002260
:0B0E360090005FEFF0A3ECF0A3EDF0E4
:100E41001209811212C9900060121235AD07AC0669
:100E510090005FE0FFAB05AA047D02120D7EE0FF6A
:0B0E61001211A890005FE0FF02115288
:0B08980090005FEBF0A3EAF0A3E9F092
:1008A300900055E0FF3395E0FE90000075F003EFF4
:1008B300120449EE75F003A42583F583E0F9A3E060
:1008C300FAA3E0900057C9F0A3EAF0A3E9F090007F
:1008D3005FE0FBA3E0FAA3E0F990000075F003EFFB
:1008E300120449EE75F003A42583F583EBF0A3EA24
:1008F300F0A3E9F01209811212C97B057A007D0287
:0C090300120D79E0FF1D12113F0211528D
:0A0ABE0042006F0960420071000D54
:0E120B00EF4E7005EFE4FEFF227EFF7FFF2214
:100F6F0090006DE4F0A304F0900071E0FCA3E0FDAD
:100F7F007F03120E367598D04387807F0412113F7E
:0E0F8F00900070E025E0FF90006FE033FE223E
:100ED600900064EFF090006DE07002A3E060F612FF
:100EE60012CC90006EE024FFF090006DE034FFF02D
:100EF6001212C91212CC900064E0F5991212C99030
:050F06000064E0FF2281
:0B0B370090005FEFF0A3ECF0A3EDF0E6
:100B4200E4A3F0A3F0900060E0FEA3E0FFC39000F6
:100B520063E09F900062E09E502090005FE0F8E624
:100B6200FF120ED690005FE004F0900063E004F004
:100B720070D3900062E004F080CB900062E0FEA3AC
:020B8200E0FF92
:010B8400224E
:100F9D007884E6D394007480948050037F002212ED
:100FAD0012CC788416E62464F8E6900066F01212EE
:060FBD00C9900066E0FF90
:010FC300220B
:0505C30090005FEFF065
:1005C800E4FDA3F0A3F0A3F0A3F0A3F0A3F0120FAF
:1005D8009DAD07EF3395E04F6015900060E475F02E
:1005E800011203F290005FE025F0F8A60580DFC352
:1005F800900061E09402900060E094005002806AEC
:10060800900061E024FFFE900060E034FF900064F9
:10061800F0A3CEF0E4900062F0A3F0900060E0C395
:1006280013FEA3E013FFA3E0FAA3E0FBC39FEA9E37
:100638005035AF0390005FE0F92FF8E6FD900064B5
:10064800A3E0C39FFFE92FF8E6FE900062A3E0FC59
:10065800E92CF8A606E92FF8A605E004F070BC908E
:100668000062E004F080B4900060E0FEA3E0FFFDCB
:0806780090005FE02DF8E4F6AC
:010680002257
:0E121900EF4E7005EFE4FEFF227EFF7FFF2206
:0412B90043E12022CB
:0412BD0053E1DF22F8
:0412C10043E10822DB
:0412C50043E11022CF
:0806810090005FEFF0A3EDF023
:10068900E4A3F0A3F0A3F053E1F890005FE0605316
:1006990024FC601F24FC602324F8602724F0602BCD
:1006A90024E0602F24C06033247E703DE490006113
:1006B900F080369000617401F0802E900061740220
:1006C900F080269000617403F0801E90006174042C
:1006D900F080169000617405F0800E900061740638
:1006E900F080069000617407F0900061E042E190AB
:1006F900005FE0FF7E007C017D8912038BA3E0FD92
:0C0709001C12039D900062EEF0A3EFF0C4
:0107150022C1
:0C12420074696D653A256C6C750D0A002E
:100AC800420073000044007500000000125200014B
:100AD8000FA00FA0FF1065010101900190FF110008
:0E122700EF4E7005EFE4FEFF227EFF7FFF22F8
:10106500900073E0FEA3E0F4FFEEF4900073F0A3AC
:0D107500EFF0FB7D057F02120BD00212C5CB
:10110000E4FDFC7F221205C3AC06AD07ED4C600583
:051110007F22120B37E5
:0111150022B7
:100F0B0090003074FFF0A37412F0A37442F09000C1
:100F1B007512040890003312043D7B007A0079426D
:100F2B0012008B7B007A007942121116AC06AD07CA
:050F3B007F42020B37AC
:0B124E00EF75F009A42453F8E4F62229
:0B125900EF75F009A42453F876012281
:1009DE00E4FFEFC39402748094805050EF75F009D9
:1009EE00A42455F9E719476040EF75F009A4245483
:1009FE00F808E61618700116EF75F009A42455F9DB
:100A0E00E719477024EF75F009A42456F8E6FC08A0
:100A1E00E6FDEF75F009A42454F8A60408A605EF28
:0C0A2E0075F009A42453F876010F80A68F
:010A3A002299
:100DFA00E490005FF090005FE0FFC3940274809477
:100E0A00805026EF75F009A42453F8E66013E4F63F
:100E1A00EF75F009A42458F808E6FA08E6F912046E
:0C0E2A005590005FE004F080CC0212B193
:10072200021291E493A3F8E493A34003F68001F24A
:1007320008DFF48029E493A3F85407240CC8C333D8
:10074200C4540F4420C8834004F456800146F6DFA7
:10075200E4800B0102040810204080900A95E47E98
:10076200019360BCA3FF543F30E509541FFEE4939C
:10077200A360010ECF54C025E060A840B8E493A363
:10078200FAE493A3F8E493A3C8C582C8CAC583CA8E
:10079200F0A3C8C582C8CAC583CADFE9DEE780BE46
:010AE800000D
:10038B00EF8DF0A4A8F0CF8CF0A428CE8DF0A42E86
:02039B00FE2240
:10039D00BC000BBE0029EF8DF084FFADF022E4CC44
:1003AD00F875F008EF2FFFEE33FEEC33FCEE9DEC0D
:1003BD00984005FCEE9DFE0FD5F0E9E4CEFD22ED53
:1003CD00F8F5F0EE8420D21CFEADF075F008EF2F9D
:1003DD00FFED33FD4007985006D5F0F222C398FD8E
:0503ED000FD5F0EA222B
:1003F200A3F8E0C5F025F0F0E582158270021583BE
:06040200E0C838F0E8221A
:100408007401FF3395E0FEFDFCA3A3A3E0CF2FF01A
:10041800E582158270021583E0CE3EF0E5821582F2
:1004280070021583E0CD3DF0E582158270021583D8
:05043800E0CC3CF022C5
:0C043D00ECF0A3EDF0A3EEF0A3EFF02232
:0C044900A42582F582E5F03583F58322BE
:060455008A838982E47332
:10002600E5082430F582E43400F583E005082290E3
:10003600002D300703900030E475F0011204B3027E
:10004600045B2000E97F2ED2008018EF540F249025
:10005600D43440D4FF30040BEF24BFB41A0050034D
:100066002461FFE50960021509050CE50C7002051F
:100076000B30070E90002DE475F0011204B3EF0269
:1000860004A1020FC47403D2078003E4C207F50873
:1000960090002D1204CAE4F509F50BF50CE509608C
:1000A600077F2012006980F5750AFFC201C200C2EF
:1000B60002C203C205C206C208120035FF700D3027
:1000C60007057F0012007AAF0CAE0B22B4255FC283
:1000D600D5C204120035FF24D0B40A00501A75F0B8
:1000E6000A780930D50508B6FF0106C6A426F6200B
:1000F600D5047002D20380D924CFB41A00EF50047D
:10010600C2E5D20402027BD20180C6D20080C0D2F0
:100116000280BCD2D580BAD20580B47F2012006995
:100126002002077401B5090040F1120026FF1200F3
:10013600690200A3D208D2068095120026FB12009F
:1001460026FA120026F94A4B7006794C7A037BFF91
:1001560020022EE509602A7E008E82758300120435
:100166007460060EEE650A70F0C2D5EBC0E0EAC018
:10017600E0E9C0E0EE1202C2D0E0F9D0E0FAD0E049
:10018600FB12045BFF60AAEBC0E0EAC0E0E9C0E056
:10019600120069D0E02401F9D0E03400FAD0E0FB87
:1001A600E50A0460DCD50AD980877BFF7A0279BE2E
:1001B600D202809C791080027908C206C2088008A3
:1001C600D2D5790A8004790AC2D5E50A047002F507
:1001D6000AE4FAFDFEFF120026FC7B08200113123A
:1001E6000026FD7B1030000A120026FE120026FFB4
:1001F6007B20EC3382D592D55013C3E43000069FA2
:10020600FFE49EFEE42001039DFDE49CFCE4CBF8A4
:10021600C201EC700CCFCECDCCE824F8F870F38098
:1002260017C3EF33FFEE33FEED33FDEC33FCEB3358
:10023600FB994002FB0FD8E9EB300105F8D0E0C48A
:1002460048B201C0E00AEC4D4E4F78207B0070C2E8
:10025600EAB50A0040BCC0E01202C4D0F0D0E020EB
:100266000104C4C0E0C4B201C0F0120052D0F0D5FF
:10027600F0EB0200A31204D301405301BA58011156
:100286004C010D4201BE4F01C64401C64901264339
:0802960001CC5501B04601B096
:10029E004501B047036C5001152D01192E013C2B61
:1002AE00011D23013A2003552A00D54800000134D0
:1002BE003F3F3F00790AA2D5200314300509B9103B
:1002CE00020404B9080104A2D5200602500104203C
:1002DE0002689202B509005034C0E07F2030031945
:1002EE007F30A20272067205500F12031BC202C2A9
:1002FE0006C205C2087F30800F300503E9C0E01248
:10030E000069300503D0E0F9D0E0B509CC3005170F
:10031E007F30B9100C1200697F583004077F788047
:10032E0003B908031200693002057F2D0200697FB0
:10033E00202008F87F2B2006F322920280CF286E11
:10034E00756C6C2900D2011200263001F8C20178BA
:10035E000930D50108F60200D52D50434958120038
:10036E00262403B405004001E49003679312005A5B
:0D037E00743A12005AD2037509040201BA44
:10111600E4FFFE12045B600C0FEF70010E09E9702C
:05112600F20A80EF2237
:10045B00BB010689828A83E0225002E722BBFE029F
:09046B00E32289828A83E49322D2
:10047400BB010CE58229F582E5833AF583E022503D
:1004840006E92582F8E622BBFE06E92582F8E22287
:0D049400E58229F582E5833AF583E49322A1
:1004A100BB010689828A83F0225002F722BBFE013A
:0204B100F32234
:1004B300F8E0FBA3A3E0F925F0F0E58215827002D2
:0704C3001583E0FA38F02276
:0904CA00EBF0A3EAF0A3E9F02233
:1004D300D083D082F8E4937012740193700DA3A3B8
:1004E30093F8740193F5828883E4737402936860CC
:0604F300EFA3A3A380DFCC
:100FC400EFB40A07740D120FCF740A309811A89960
:100FD400B8130CC2983098FDA899C298B811F6308D
:070FE40099FDC299F5992265
:00000001FF
