:03000000020712E2
:0C071200787FE4F6D8FD75818402075959
:0E116100EF4E7005EFE4FEFF227EFF7FFF22BF
:10105200EF14600D14600D14600D2403700D8D806B
:0C106200228D90228DA022AF058FB022BD
:100FDA00E4FEEF14600E14600F1460102403700E08
:100FEA00AE80800AAE908006AEA08002AEB0AF0698
:010FFA0022D4
:020D1100AC072D
:100D1300EB6014AF04120FDA7401A805088002C354
:100D230033D8FC4FFF8015AF04120FDAAE05740100
:100D3300A806088002C333D8FCF45FFFEC14600DEF
:100D430014600D14600D2403700B8F80228F90228A
:050D53008FA0228FB00B
:010D58002278
:100DE200E4FCEF14600E14600F1460102403700E04
:100DF200AC80800AAC908006ACA08002ACB0AF059B
:100E020074017E00A807088005C333CE33CED8F91B
:0D0E1200FFAD04EF5D60047F0180027F00F2
:010E1F0022B0
:10112200EF70047F0180027F00EF24FFB392D5228B
:10113200EF70047F0180027F00EF24FFB392D4227C
:10114200EF70047F0180027F00EF24FFB392D3226D
:1010FB00AE07EE5401FF121142AF06EFC3135401BA
:04110B00FF0211329C
:04001E00E433FF22A6
:06127500A2D5E433FF22C4
:06127B00A2D4E433FF22BF
:06128100A2D3E433FF22BA
:06128700A2D2E433FF22B5
:0E116F00EF4E7005EFE4FEFF227EFF7FFF22B1
:100FFB00900067E0FBA3E0FAA3E0F9900000EBF0B0
:0D100B00A3EAF0A3E9F0120455E4FEFF2271
:1010180090006AE0FBA3E0FAA3E0F9900006EBF089
:0D102800A3EAF0A3E9F0120455E4FEFF2254
:100E8E00900000E0F9A3E0FAA3E0900067C9F0A398
:100E9E00EAF0A3E9F090000074FFF0A3740FF0A342
:100EAE0074FBF0EF24FF928812097D1212A57D01CA
:050EBE00E4FF02110F2A
:100EC300900006E0F9A3E0FAA3E090006AC9F0A35A
:100ED300EAF0A3E9F090000674FFF0A37410F0A306
:100EE3007418F0EF24FF928A12097D1212A57D0176
:050EF3007F0202110F57
:05000600E4FF021152AD
:05000E007F0202115207
:100B83004F00000000000000000000000000000013
:020B9300000060
:0E117D00EF4E7005EFE4FEFF227EFF7FFF22A3
:10097D0090000FE4F0A3F0A374A8F0A3E4F0A3F0AB
:10098D00A374A9F0A3E4F0A3F0A374AAF0A3E4F078
:10099D00A3F0A374ABF0A3E4F0A3F0A374ACF0A3A5
:1009AD00E4F0A3F0A374B8F0A3E4F0A3F0A374B93A
:1009BD00F0A3E4F0A3F0A374BAF0A3E4F0A3F0A3C2
:0D09CD0074BBF0A3E4F0A3F0A374BCF0220F
:0312A500D2AF22A3
:0312A800C2AF22B0
:10110F00900064EDF07401A807088002C333D8FC87
:03111F0042A822C1
:0F1152007401A807088002C333D8FCF452A82206
:09124100900081EFF0A3EDF02212
:030003000209DA15
:1009DA00C0E0C0F0C083C08263A201C083C082C0ED
:1009EA00D075D000C000C001C002C003C004C00559
:1009FA00C006C007900000A3E0FAA3E0F94A60032A
:100A0A00120455D007D006D005D004D003D002D0A6
:100A1A0001D000D0D0D082D08363A201D082D0830B
:050A2A00D0F0D0E03225
:03000B00020A2FB7
:100A2F00C0E0C0F0C083C08263A201C083C082C097
:100A3F00D075D000C000C001C002C003C004C00503
:100A4F00C006C007900003A3E0FAA3E0F94A6003D1
:100A5F00120455D007D006D005D004D003D002D051
:100A6F0001D000D0D0D082D08363A201D082D083B6
:050A7F00D0F0D0E032D0
:03001300020A845A
:100A8400C0E0C0F0C083C08263A201C083C082C042
:100A9400D075D000C000C001C002C003C004C005AE
:100AA400C006C007900006A3E0FAA3E0F94A600379
:100AB400120455D007D006D005D004D003D002D0FC
:100AC40001D000D0D0D082D08363A201D082D08361
:050AD400D0F0D0E0327B
:03001B00020AD9FD
:100AD900C0E0C0F0C083C08263A201C083C082C0ED
:100AE900D075D000C000C001C002C003C004C00559
:100AF900C006C007900009A3E0FAA3E0F94A600321
:100B0900120455D007D006D005D004D003D002D0A6
:100B190001D000D0D0D082D08363A201D082D0830B
:050B2900D0F0D0E03225
:03002300020BD7F6
:100BD700C0E0C083C08263A201C083C082C0D07559
:100BE700D000C0003098111212A87884E606246459
:100BF700F8A6991212A5C298309916C2991212A88E
:100C070090006EE004F0700690006DE004F01212A0
:100C1700A5D000D0D0D082D08363A201D082D08368
:030C2700D0E032E8
:050016006F6B0D0A00F4
:0A0B9500420079000042007B0000DE
:0E118B00EF4E7005EFE4FEFF227EFF7FFF2295
:08126500E4FBFD7F02020D1104
:10106E00900079E0FEA3E0F4FFEEF4900079F0A397
:0A107E00EFF0FB7D017F02020D116F
:09124A00E4FB7D027F02020D119C
:09125300E4FB7D037F02020D1192
:1010880090007BE0FEA3E0F4FFEEF490007BF0A379
:0A109800EFF0FB7D047F02020D1152
:10090B0090000074FFF0A37412F0A37465F0A3744D
:10091B00FFF0A37410F0A3746EF0A374FFF0A37434
:10092B0012F0A3744AF0A374FFF0A37412F0A37433
:10093B0053F0A374FFF0A37410F0A37488F0E4FFDA
:10094B001210FB12097D1212A5120F621212957D65
:10095B000C7F4012067D7F01120E8EE4FF120EC338
:10096B007F167D047C00120C787BFF7A0B792E02AC
:02097B000894DE
:08126D0012090B120E2080FB98
:0E119900EF4E7005EFE4FEFF227EFF7FFF2287
:04128D004387012270
:04129100438702226B
:0D0B9F00410055014100560342005D000079
:0E11A700EF4E7005EFE4FEFF227EFF7FFF2279
:1010A200900055E0FF1211FA900055E0FF12115224
:0710B2009000557401F022CB
:1010B900900056E0FF1211FA900056E0FF1211520B
:0710C9009000567403F022B1
:100D5900900056E0FB6401701B5389F0438904EF4E
:100D69004289EFB40207AF058F8C8F8A22EDF58A8D
:100D7900ECF58C22EB6403701D53890F438940EF16
:100D8900C454F04289EFB40207AF058F8D8F8B22CF
:070D9900EDF58BECF58D2256
:1004F900E490007DF0A3F090005DE07002A3E0704D
:100509004A1210A2900057E0FBA3E0FAA3E0F99089
:100519000055E0FFFD3395E0FC90000075F003ED18
:10052900120449EC75F003A42583F583EBF0A3EAE3
:10053900F0A3E9F0EF75F003A42400F582E4340098
:10054900F583A3E0FAA3E0F9020455D390005EE035
:10055900943C90005DE09400401F7F607EEA121297
:100569000C90007FEEF0A3EFF090005EE024C4F061
:1005790090005DE034FFF0802390007FE0FEA3E06F
:10058900FF7C037DE812038B12120C90007FEEF0C2
:10059900A3EFF0E4FE90005DF0A3CEF0900055E0EB
:1005A900FF90007FE0FAA3E0FB7D01120DA590000A
:0905B90055E0FF1211EDE4FEFF14
:0105C2002216
:0D11ED00EFB40102D28CEFB40302D28E22C7
:0D11FA00EFB40102C28CEFB40302C28E22DA
:05120700E0FEA3E0FF82
:08120C00C3E49FFFE49EFE22F3
:050DA000900055E0FF8A
:100DA500EF640170185389F0ED4289EDB40207AF85
:100DB500038F8C8F8A22EBF58AEAF58C22EF640388
:100DC500701A5389F0EDC454F04289EDB40207AFAF
:0D0DD500038F8D8F8B22EBF58BEAF58D22BD
:08081C00900083EEF0A3EFF061
:10082400900055E0FF3395E0FE90000075F003EF73
:10083400120449EE75F003A42583F583E0F9A3E0DF
:10084400FAA3E0900057C9F0A3EAF0A3E9F09000FE
:100854000075F003EF120449EE75F003A42583F547
:100864008374FFF0A37404F0A374F9F012097D12E9
:1008740012A5900083121207AD07AC06AB05AA04BB
:0F0884007D01120DA0E0FF12110F1211ED7F0088
:010893002242
:100CC600E4FD90005DEEF0A3EFF0D3943CEE9400CB
:100CD60040197F607EEA12081CAD0790005EE02492
:100CE600C4F090005DE034FFF0801D90005DE0FEF2
:100CF600A3E0FF7C037DE812038B12081CAD07E41A
:0A0D0600FE90005DF0A3CEF0AF05F3
:010D100022C0
:0A1220007C037DE812038B120CC65C
:01122A0022A1
:100C2A001210B990005AE0FBA3E0FAA3E0F9900091
:100C3A0056E0FFFD3395E0FC90000075F003ED12DD
:100C4A000449EC75F003A42583F583EBF0A3EAF0DD
:100C5A00A3E9F0EF75F003A42400F582E43400F56B
:0E0C6A0083A3E0FAA3E0F9120455E4FEFF2292
:08079E00900085EEF0A3EFF0DE
:1007A60012097D1212A5900085121207900056E0DC
:1007B600FD3395E0FC90000075F003ED120449EC62
:1007C60075F003A42583F583E0F9A3E0FAA3E0908E
:1007D600005AC9F0A3EAF0A3E9F090000075F0030F
:1007E600ED120449EC75F003A42583F58374FFF03C
:1007F600A3740CF0A3742AF0AD07AC067F01120DAA
:1008060059900056E0FF7D0112110F900056E0FF4F
:050816001211ED7F004E
:01081B0022BA
:0100220022BB
:0212AB0000221F
:08125C007FC77E01DEFEDFFA10
:011264002267
:0D11B5007FA77EAB7D10DDFEDEFADFF600C9
:0111C200220A
:0B0E580090005FEFF0A3ECF0A3EDF0C2
:100E630012097D1212A5900060121207AD07AC069D
:100E730090005FE0FFAB05AA047D02120DA5E0FF21
:0B0E830012115290005FE0FF0211ED21
:0B08940090005FEBF0A3EAF0A3E9F096
:10089F00900055E0FF3395E0FE90000075F003EFF8
:1008AF00120449EE75F003A42583F583E0F9A3E064
:1008BF00FAA3E0900057C9F0A3EAF0A3E9F0900083
:1008CF005FE0FBA3E0FAA3E0F990000075F003EFFF
:1008DF00120449EE75F003A42583F583EBF0A3EA28
:1008EF00F0A3E9F012097D1212A57B057A007D02B3
:0C08FF00120DA0E0FF1D12110F0211ED00
:0A0BAC0042006F0960420071000D65
:0E11C300EF4E7005EFE4FEFF227EFF7FFF225D
:100F620090006DE4F0A304F0900071E0FCA3E0FDBA
:100F72007F03120E587598D04387807F0412110F99
:0E0F8200900070E025E0FF90006FE033FE224B
:100EF800900064EFF090006DE07002A3E060F612DD
:100F080012A890006EE024FFF090006DE034FFF02E
:100F18001212A51212A8900064E0F5991212A59079
:050F28000064E0FF225F
:0B0C780090005FEFF0A3ECF0A3EDF0A4
:100C8300E4A3F0A3F0900060E0FEA3E0FFC39000B4
:100C930063E09F900062E09E502090005FE0F8E6E2
:100CA300FF120EF890005FE004F0900063E004F0A0
:100CB30070D3900062E004F080CB900062E0FEA36A
:020CC300E0FF50
:010CC500220C
:100FB7007884E6D3940050037F00221212A8788425
:100FC70016E62464F8E6900066F01212A590006613
:020FD700E0FF39
:010FD90022F5
:0505C30090005FEFF065
:1005C800E4FDA3F0A3F0A3F0A3F0A3F0A3F0120FAF
:1005D800B7AD07EF6015900060E475F0011203F203
:1005E80090005FE025F0F8A60580E3C3900061E085
:1005F8009402900060E094005002806A900061E0EC
:1006080024FFFE900060E034FF900064F0A3CEF079
:10061800E4900062F0A3F0900060E0C313FEA3E052
:1006280013FFA3E0FAA3E0FBC39FEA9E5035AF0394
:1006380090005FE0F92FF8E6FD900064A3E0C39F07
:10064800FFE92FF8E6FE900062A3E0FCE92CF8A68B
:1006580006E92FF8A605E004F070BC900062E004FB
:10066800F080B4900060E0FEA3E0FFFD90005FE042
:040678002DF8E4F67F
:01067C00225B
:0E11D100EF4E7005EFE4FEFF227EFF7FFF224F
:0412950043E12022EF
:0412990053E1DF221C
:04129D0043E10822FF
:0412A10043E11022F3
:08067D0090005FEFF0A3EDF027
:10068500E4A3F0A3F0A3F053E1F890005FE060531A
:1006950024FC601F24FC602324F8602724F0602BD1
:1006A50024E0602F24C06033247E703DE490006117
:1006B500F080369000617401F0802E900061740224
:1006C500F080269000617403F0801E900061740430
:1006D500F080169000617405F0800E90006174063C
:1006E500F080069000617407F0900061E042E190AF
:1006F500005FE0FF7E007C017D8912038BA3E0FD96
:0C0705001C12039D900062EEF0A3EFF0C8
:0107110022C5
:0C12140074696D653A256C6C750D0A005C
:100BB600420073000044007500000000125200015C
:100BC6000FA00FA0FF1035010101900190FF10D07A
:0E11DF00EF4E7005EFE4FEFF227EFF7FFF2241
:10103500900073E0FEA3E0F4FFEEF4900073F0A3DC
:0D104500EFF0FB7D057F02120D110212A1DC
:1010D000E4FDFC7F221205C3AC06AD07ED4C6005B4
:0510E0007F22120C78D4
:0110E50022E8
:100F2D0090003074FFF0A37412F0A37414F09000CD
:100F3D007512040890003312043D7B007A0079424B
:100F4D0012008B7B007A0079421210E6AC06AD07D9
:050F5D007F42020C7848
:0B122B00EF75F009A42453F8E4F6224C
:0B123600EF75F009A42453F8760122A4
:100B2E00E4FFEF75F009A42455F9E719476040EF8B
:100B3E0075F009A42454F808E61618700116EF751E
:100B4E00F009A42455F9E719477024EF75F009A4AC
:100B5E002456F8E6FC08E6FDEF75F009A42454F8D7
:100B6E00A60408A605EF75F009A42453F876010F24
:040B7E00EFB402AE20
:010B82002250
:100E2000E490005FF090005FE0FFC394025026EF73
:100E300075F009A42453F8E66013E4F6EF75F009A1
:100E4000A42458F808E6FA08E6F912045590005F61
:080E5000E004F080D002128DD5
:10071E0002126DE493A3F8E493A34003F68001F272
:10072E0008DFF48029E493A3F85407240CC8C333DC
:10073E00C4540F4420C8834004F456800146F6DFAB
:10074E00E4800B0102040810204080900B83E47EAD
:10075E00019360BCA3FF543F30E509541FFEE493A0
:10076E00A360010ECF54C025E060A840B8E493A367
:10077E00FAE493A3F8E493A3C8C582C8CAC583CA92
:10078E00F0A3C8C582C8CAC583CADFE9DEE780BE4A
:010BD600001E
:10038B00EF8DF0A4A8F0CF8CF0A428CE8DF0A42E86
:02039B00FE2240
:10039D00BC000BBE0029EF8DF084FFADF022E4CC44
:1003AD00F875F008EF2FFFEE33FEEC33FCEE9DEC0D
:1003BD00984005FCEE9DFE0FD5F0E9E4CEFD22ED53
:1003CD00F8F5F0EE8420D21CFEADF075F008EF2F9D
:1003DD00FFED33FD4007985006D5F0F222C398FD8E
:0503ED000FD5F0EA222B
:1003F200A3F8E0C5F025F0F0E582158270021583BE
:06040200E0C838F0E8221A
:100408007401FF3395E0FEFDFCA3A3A3E0CF2FF01A
:10041800E582158270021583E0CE3EF0E5821582F2
:1004280070021583E0CD3DF0E582158270021583D8
:05043800E0CC3CF022C5
:0C043D00ECF0A3EDF0A3EEF0A3EFF02232
:0C044900A42582F582E5F03583F58322BE
:060455008A838982E47332
:10002600E5082430F582E43400F583E005082290E3
:10003600002D300703900030E475F0011204B3027E
:10004600045B2000E97F2ED2008018EF540F249025
:10005600D43440D4FF30040BEF24BFB41A0050034D
:100066002461FFE50960021509050CE50C7002051F
:100076000B30070E90002DE475F0011204B3EF0269
:1000860004A1020F907403D2078003E4C207F508A7
:1000960090002D1204CAE4F509F50BF50CE509608C
:1000A600077F2012006980F5750AFFC201C200C2EF
:1000B60002C203C205C206C208120035FF700D3027
:1000C60007057F0012007AAF0CAE0B22B4255FC283
:1000D600D5C204120035FF24D0B40A00501A75F0B8
:1000E6000A780930D50508B6FF0106C6A426F6200B
:1000F600D5047002D20380D924CFB41A00EF50047D
:10010600C2E5D20402027BD20180C6D20080C0D2F0
:100116000280BCD2D580BAD20580B47F2012006995
:100126002002077401B5090040F1120026FF1200F3
:10013600690200A3D208D2068095120026FB12009F
:1001460026FA120026F94A4B7006794C7A037BFF91
:1001560020022EE509602A7E008E82758300120435
:100166007460060EEE650A70F0C2D5EBC0E0EAC018
:10017600E0E9C0E0EE1202C2D0E0F9D0E0FAD0E049
:10018600FB12045BFF60AAEBC0E0EAC0E0E9C0E056
:10019600120069D0E02401F9D0E03400FAD0E0FB87
:1001A600E50A0460DCD50AD980877BFF7A0279BE2E
:1001B600D202809C791080027908C206C2088008A3
:1001C600D2D5790A8004790AC2D5E50A047002F507
:1001D6000AE4FAFDFEFF120026FC7B08200113123A
:1001E6000026FD7B1030000A120026FE120026FFB4
:1001F6007B20EC3382D592D55013C3E43000069FA2
:10020600FFE49EFEE42001039DFDE49CFCE4CBF8A4
:10021600C201EC700CCFCECDCCE824F8F870F38098
:1002260017C3EF33FFEE33FEED33FDEC33FCEB3358
:10023600FB994002FB0FD8E9EB300105F8D0E0C48A
:1002460048B201C0E00AEC4D4E4F78207B0070C2E8
:10025600EAB50A0040BCC0E01202C4D0F0D0E020EB
:100266000104C4C0E0C4B201C0F0120052D0F0D5FF
:10027600F0EB0200A31204D301405301BA58011156
:100286004C010D4201BE4F01C64401C64901264339
:0802960001CC5501B04601B096
:10029E004501B047036C5001152D01192E013C2B61
:1002AE00011D23013A2003552A00D54800000134D0
:1002BE003F3F3F00790AA2D5200314300509B9103B
:1002CE00020404B9080104A2D5200602500104203C
:1002DE0002689202B509005034C0E07F2030031945
:1002EE007F30A20272067205500F12031BC202C2A9
:1002FE0006C205C2087F30800F300503E9C0E01248
:10030E000069300503D0E0F9D0E0B509CC3005170F
:10031E007F30B9100C1200697F583004077F788047
:10032E0003B908031200693002057F2D0200697FB0
:10033E00202008F87F2B2006F322920280CF286E11
:10034E00756C6C2900D2011200263001F8C20178BA
:10035E000930D50108F60200D52D50434958120038
:10036E00262403B405004001E49003679312005A5B
:0D037E00743A12005AD2037509040201BA44
:1010E600E4FFFE12045B600C0FEF70010E09E9705D
:0510F600F20A80EF2268
:10045B00BB010689828A83E0225002E722BBFE029F
:09046B00E32289828A83E49322D2
:10047400BB010CE58229F582E5833AF583E022503D
:1004840006E92582F8E622BBFE06E92582F8E22287
:0D049400E58229F582E5833AF583E49322A1
:1004A100BB010689828A83F0225002F722BBFE013A
:0204B100F32234
:1004B300F8E0FBA3A3E0F925F0F0E58215827002D2
:0704C3001583E0FA38F02276
:0904CA00EBF0A3EAF0A3E9F02233
:1004D300D083D082F8E4937012740193700DA3A3B8
:1004E30093F8740193F5828883E4737402936860CC
:0604F300EFA3A3A380DFCC
:100F9000EFB40A07740D120F9B740A309811A899C8
:100FA000B8130CC2983098FDA899C298B811F630C1
:070FB00099FDC299F5992299
:00000001FF
